:1000000006308A008F2E00000C24D81BB118A015D2
:10001000202643220A22613767106B34EF34203ADE
:10002000E13700000C2261376710F430F2322E17EE
:100030002E05D8346E10E43769000C26CF24202416
:10004000D81BB1188A25E9326D1074396110442A21
:10005000AF29C32500008C1237173233A0330A2989
:10006000C12BBA126C32800094138C114D0893008E
:100070000230941B4228831614193C280030111BAF
:1000800001308312F8000800831611141118462855
:1000900083123708CD0034207808381078183814C7
:1000A000831611151119522800308312381C0130A3
:1000B000F80008008316111411185C288312220816
:1000C000CD0034204B082304CC00CD00342083160F
:1000D0001115111969288312080044308400831314
:1000E0000008031981280130F800F701F70B762882
:1000F000F80B75284A30F700F70B7C287F28800B17
:1001000073280800003021180130C9044908CB00C9
:100110005A2049080438CA00CB005A200000490878
:10012000FB39CA00CB005A201030F700F70B962895
:100130000000080021104708F039C800C9008220DB
:10014000470EF700F030F7057708F039C800C9000E
:10015000822008004E30B600B7004420F80803198A
:10016000B4284E30B600BC287E30B7004420F808D2
:100170000319BC287E30B6003608B7003708A20045
:10018000CB015A202830C4006D200330C7009A20CC
:100190000530C4006D200330C7009A200530C4002C
:1001A0006D200330C7009A200530C4006D20023056
:1001B000C7009A200530C4006D202830C7009A205F
:1001C0003230C4006D200C30C7009A203230C40099
:1001D0006D200130C7009A203230C4006D200630F7
:1001E000C7009A203230C4006D208A110A12BE2E38
:1001F0004508023A03190329013A03190A29073A63
:10020000031911291829C0304407FF3EC600C70052
:100210009A201E2994304407FF3EC600C7009A204A
:100220001E29D4304407FF3EC600C7009A201E296D
:1002300080304407FF3EC600C7009A2008004308EC
:100240000C3A03192A29063A03193129073A0319E6
:1002500037293C290130C7009A200230C4006D20A4
:100260004D290130C4000230C500F8204D2901306D
:10027000C400C500F8204D294308C40021144408D7
:10028000F039C500C9008220440EF700F030F705B0
:100290007708F039C500C900822008000B08B600B5
:1002A0008B13831603178C170C14000000008312A5
:1002B0000313B61B8B1703170C087F390319A229E8
:1002C0000313B60003170D080313B70003170F0835
:1002D0000313B8003608C3001F21370803178D0029
:1002E0000313380803178F0003130B08B9008B138F
:1002F000831603178C170C140000000083120313DD
:10030000B91B8B1703170C0D0E0D7F390319A2298A
:100310000313B60003170D080313B70003170F08E4
:100320000313B8003608C3001F21370803178D00D8
:100330000313380803178F008D0A03198F0A03135C
:100340004E29031703130800BA01B901B801B70118
:10035000BB0136083B0203184D2ABF01BE01BD0197
:10036000BC01A01020088316870083128710C201E9
:10037000C10120142008831687008312071CD82986
:100380000330F700F70BC229C10A0319C20A420859
:10039000E93C0318D729FF3A031DD2294108603CE4
:1003A0000318D729F701F801F901FA013D2AB92903
:1003B000C0014008173C031C132AA0102008831614
:1003C000870083128714000003103C0DC4003D0D0C
:1003D000C5003E0DC6003F0DC7002014200883163F
:1003E00087008312071CFA290130F700F801F90190
:1003F000FA01FE29F701F801F901FA01770844042E
:10040000BC0078084504BD0079084604BE007A089F
:100410004704BF00A01020088316870083128710AE
:100420000000C00AD929A010200883168700831273
:1004300087140000A01020088316870083128710FD
:100440000000F701F8013E088039F900FA01F708C9
:10045000031D332AF808031D332AF908031D332A24
:10046000FA080319352AFF30BF043C08F7003D089D
:10047000F8003E08F9003F08FA007708B707780847
:100480000318780FB80779080318790FB9077A08A5
:1004900003187A0FBA07BB0AA92983103A08BF00CC
:1004A0003908BE003808BD003708BC00C301C201CE
:1004B000C1013608C0008318602A443084008313C9
:1004C0003F0843068039C900BF1F712ABC09BD0916
:1004D000BE09BF09BC0A0319BD0A0319BE0A0319E4
:1004E000BF0AC31F7E2AC009C109C209C309C00AC5
:1004F0000319C10A0319C20A0319C30AF701F80153
:10050000F901FA01C401C501C601C701430842044B
:10051000410440040319BC2A2030C8000310BC0D5C
:10052000BD0DBE0DBF0DC40DC50DC60DC70D4308D5
:100530004702031DA52A42084602031DA52A4108B9
:100540004502031DA52A40084402031CB62A4008A0
:10055000C4024108031C410FC5024208031C420F9C
:10056000C6024308031C430FC7020314F70DF80D1E
:10057000F90DFA0DC80B8E2AC91FC92AF709F80907
:10058000F909FA09F70A0319F80A0319F90A03190C
:10059000FA0A44088000840A45088000840A460854
:1005A0008000840A470880000800B630F700FA018E
:1005B000F901F8013A10B91FEB2A3A14B609B70944
:1005C000B809B909B60A031DEB2AB70A031DEB2ABD
:1005D000B80A0319B90A3608370438043904031D68
:1005E000F32AF701022B0310F81BFF2AB60DB70DF3
:1005F000B80DB90DFA0DF90DF80DF70BF32AF81334
:100600003A18F8178A110A12302F3A080319CA2B20
:10061000C6003E080319CA2BC602031C142B7F30E8
:10062000C6070318CA2B1A2B8130C602031CCA2B1B
:100630000319CA2B4608F700F801F901FA01C501B0
:100640003B08C400C4173C08C3003D08C200193071
:10065000C6004108C20203183D2B0130C302031833
:100660003D2BC40203183D2BC50203183D2BC50AC0
:10067000C40AC30A4108C2076F2B4008C30203180B
:10068000582B0130C4020318582BC5020318582BED
:10069000C50AC40A4008C3074108C207031C6F2BE0
:1006A000C30A031D6F2BC40A031D6F2BC50A6F2BD2
:1006B0003F088038C40203186E2B0130C5020318AE
:1006C0006E2BC50A3F088038C4074008C307031CC7
:1006D0004C2BC40A031D4C2BC50A4C2B7A14C60B99
:1006E000722B7D2B0310C20DC30DC40DC50D03105D
:1006F000FA0DF90DF80DC70D292B471C852B03109A
:10070000F80CF90CFA0CC70C882BF7030319CA2B49
:10071000C71BB12B0310C20DC30DC40DC50D41087D
:10072000C20203189D2B0130C30203189D2BC40283
:1007300003189D2BC502031CC02B4008C3020318DD
:10074000A82B0130C4020318A82BC502031CC02B20
:100750003F088038C4020318B12B0130C502031CC6
:10076000C02BFA0A031DC02BF90A031DC02BF80A7F
:10077000031DC02BF70A0319CA2BF80CF90CFA0C4D
:100780003B08C6003F08C606C61FC82BF817CE2B6D
:10079000F813CE2BF701F801F901FA018A110A12B8
:1007A000492F3708BE003B08BE06BE1FDC2B0311D5
:1007B0000310B71B03140F2C3708BE003A08BF0004
:1007C0003608BF020319EA2BBE1F0F2C0308013A9B
:1007D00083000F2C3B08BF003708BF020319F62B1C
:1007E000BE1F0F2C0308013A83000F2C3C08BF00EA
:1007F0003808BF020319022CBE1F0F2C0308013A50
:1008000083000F2C3D08BF003908BF0203190E2CCE
:10081000BE1F0F2C0308013A83000F2C03108A110E
:100820000A125E2F8318172C4B3084008313F701B4
:10083000F801F901FA01CB01CC01CD01CE014A0842
:100840004904480447040319552C2030CF000310F5
:10085000C30DC40DC50DC60DCB0DCC0DCD0DCE0DEC
:100860004A084E02031D3E2C49084D02031D3E2C32
:1008700048084C02031D3E2C47084B02031C4F2C1A
:100880004708CB024808031C480FCC024908031C48
:10089000490FCD024A08031C4A0FCE020314F70D7C
:1008A000F80DF90DFA0DCF0B272C4B088000840AA8
:1008B0004C088000840A4D088000840A4E0880009D
:1008C00008000408BB003A08BD000319F32C3908DE
:1008D000C6003808C5003708C4003608C300CA017E
:1008E000C9012030C8008230C70043080319E52C35
:1008F000CB0047080319E52CCB070318862C7F3063
:10090000CB02031CE52C0319E52C8A2C8130CB0784
:100910000318E52C4B08F700F801F901FA01440827
:10092000CF00CF174508CE004608CD001830CB00C9
:10093000CC014D1CB32C4A08FA07031CA52CF90A5C
:10094000031DA52CF80A0319CC174908F907031C45
:10095000AC2CF80A0319CC174808C500C517450880
:10096000F8070318CC17CC0DF80CF90CFA0CCF0CC7
:10097000CE0CCD0C0310CB0B982C0130F7070318CD
:10098000E52CF81BCA2CCF0DFA0DF90DF80DF70365
:100990000319E52CCF1FDB2CFA0A031DDB2CF90A07
:1009A000031DDB2CF80A031DDB2CF80CF90CFA0CE8
:1009B000F70A0319E52C4408CC004808CC06CC1FE4
:1009C000E32CF817E92CF813E92CF701F801F901E9
:1009D000FA017A08B9007908B8007808B7007708F2
:1009E000B600BD0B672C3908C6003808C5003708AB
:1009F000C4003608C3004308B63CC300FA014408EB
:100A0000C700C4170310C40CC50CC60CFA0CF90CB3
:100A1000F80CF70CC30B022DC71F192DF709F809A5
:100A2000F909FA09F70A0319F80A0319F90A031967
:100A3000FA0A7A08B9007908B8007808B700770888
:100A4000B600B91F302DBB03BB16B609B709B809EC
:100A5000B909B60A0319B70A0319B80A0319B90A7A
:100A60003B30C2009A30C100CA30C000BF010A301A
:100A7000BD003A080319BB0A83143630840083137F
:100A80003908C6003808C5003708C4003608C30056
:100A90004208CA004108C9004008C8003F08C70012
:100AA00012247808F708031D682D3A0A3D0203193D
:100AB000682D3B0803196A2D0F393D020319622D79
:100AC00003189A2DBB1B9A2D3B1B6A2D2030962DA7
:100AD0002030BB05BB1E782DBB123A08031DBB039B
:100AE0007708BB002D30C3001F213B08F700BB0176
:100AF0003A083D02031D862D7708BB002E30C30047
:100B00001F213B08F7002030BB0500303030BB1EF2
:100B1000962DBB123A08031DBB037708BB002D308E
:100B2000C3001F213B08F700BB013030F7077708EF
:100B3000C3001F2183104208C6004108C5004008B9
:100B4000C4003F08C300CA01C901C8010A30C70078
:100B500012247A08C2007908C1007808C00077081A
:100B6000BF00BD0B3C2D8A110A12732F0B08B70072
:100B70008B13831603178C170C14000000008312CC
:100B80000313B71B8B170318ED2D03170C087F39C0
:100B90000313B70003170D080313B80003170F085A
:100BA0000313B9003708C3001F21380803178D004D
:100BB0000313390803178F0003130B08BA008B13B4
:100BC000831603178C170C14000000008312031304
:100BD000BA1B8B17B60BED2D0C2E03170C0D0E0D3B
:100BE0007F390313B70003170D080313B800031769
:100BF0000F080313B9003708C3001F213808031773
:100C00008D000313390803178F008D0A03198F0A0B
:100C100003100313B60BB62D8A110A127D2F040898
:100C2000BA00B91F202EBA03BA16B609B709B80917
:100C3000B909B60A0319B70A0319B80A0319B90A98
:100C40003B30C1009A30C000CA30BF00BE010A303C
:100C5000BC0083143630840083133908C60038087A
:100C6000C5003708C4003608C3004108CA00400860
:100C7000C9003F08C8003E08C70012247808F708DA
:100C8000031D552E3C08013A0319552E3A08031945
:100C9000572E0F393C0203194F2E0318732EBA1B1F
:100CA000732E3A1B572E20306F2E2030BA05BA1EF5
:100CB000622EBA127708BA002D30C3001F213A08FD
:100CC000F700BA013030BA1E6F2EBA127708BA0098
:100CD0002D30C3001F213A08F700BA013030F70762
:100CE0007708C3001F2183104108C6004008C500D3
:100CF0003F08C4003E08C300CA01C901C8010A3048
:100D0000C70012247A08C1007908C0007808BF0023
:100D10007708BE00BC0B292E8A110A12882F0308FF
:100D20001F398300FF30A000A0152008831687001C
:100D3000831220162008831687000930930028307C
:100D40008312940083169417141308308312A3009F
:100D5000A701A6011030A5008430A400AB01AA01B0
:100D6000A901A801AD01AC0183161F149F141F1522
:100D70009F1107309C0083138312AA2804300317A5
:100D80008D0000308F0003134E210530B600F03087
:100D9000C4006D20B60BC72E123003178D00003033
:100DA0008F0003134E211430B600A4217A08AB0043
:100DB0007908AA007808A9007708A8000230B600D0
:100DC000C830C4006D20B60BE02E0A30B600A42156
:100DD0007A08B1007908B0007808AF007708AE0053
:100DE000AE08031D122FAF08031D122FB008031DFC
:100DF000122FB108031D122F20142008831687001C
:100E00008312071C122F1D3003178D0000308F0036
:100E100003134E210230B600FA30C4006D20B60B29
:100E20000C2FE52E28082E02F7002F08F8002908BD
:100E3000031C290FF8023008F9002A08031C2A0FA6
:100E4000F9023108FA002B08031C2B0FFA027A086A
:100E5000B9007908B8007808B7007708B600D52A35
:100E60007A08B9007908B8007808B7007708B600A2
:100E70007A08BD007908BC007808BB007708BA0082
:100E80002708C1002608C0002508BF002408BE00AE
:100E9000052B7A08B5007908B4007808B300770804
:100EA000B2003508B9003408B8003308B70032087A
:100EB000B600BD01BC01BB01BA01D12B031C632FDD
:100EC0003308803AB3000C30C3001F210630840081
:100ED0003508B9003408B8003308B7003208B60046
:100EE0000230BA00612C2E3003178D0000308F00C5
:100EF000031007300313B600B62D413084003108CB
:100F0000B9003008B8002F08B7002E08B6000F2E21
:100F10000230B6009630C4006D20B60B8A2FE52E45
:020F200063006C
:02400E00393F38
:00000001FF
;PIC16F877A
;CRC=37E6  CREATED="20-Dec-25 13:38"
