:1000000008308A0000280000CC3761326937670069
:10001000CC376132693767170001CC3761326937F5
:1000200067172E00CC376132693767172E1700012A
:100030002010201020102010201020102010201040
:10004000201000012010201020102010201020105F
:100050002010201020100001D3306E10F330EE334A
:100060002100C3204E10CE20CE233A00C3204E10D4
:10007000CE20CE233A002010201020100001613045
:10008000840083130008031952280630F800F70192
:10009000F70B4828F80B47287B30F700F70B4E2862
:1000A000800B4528080094138C116F0893000230D0
:1000B000941B6128831614195B280030111B013032
:1000C0008312F80008008316111411186528831292
:1000D0002208EF0053206D082304EE00EF005320A8
:1000E0008316111511197228831208000030211887
:1000F0000130EB046B08ED0063206B080438EC0062
:10010000ED0063208328842800006B08FB39EC0095
:10011000ED0063205330F700F70B8C280800211006
:100120005F08F039E000EB0076205F0EF700F0305A
:10013000F7057708F039E000EB00762008005C084E
:10014000A200ED0163202830E1003F200330DF00F2
:100150008F200530E1003F200330DF008F20053085
:10016000E1003F200330DF008F200530E1003F2019
:100170000230DF008F200530E1003F202830DF0013
:100180008F203230E1003F200C30DF008F203230F2
:10019000E1003F200130DF008F203230E1003F20BE
:1001A0000630DF008F203230E1003F2008005D087C
:1001B000023A0319E228013A0319E928073A031918
:1001C000F028F728C0305C07FF3EDE00DF008F20FC
:1001D000FD2894305C07FF3EDE00DF008F20FD2805
:1001E000D4305C07FF3EDE00DF008F20FD2880302A
:1001F0005C07FF3EDE00DF008F2008002114690845
:10020000F039EA00EB007620690EF700F030F705D0
:100210007708F039EA00EB00762008000B08DC00D4
:100220008B13831603178C170C1400000000831225
:100230000313DC1B8B1703170C087F390319622982
:100240000313DC0003170D080313DD0003170F0869
:100250000313DE005C08E900FE205D0803178D0033
:1002600003135E0803178F0003130B08DF008B13C3
:10027000831603178C170C1400000000831203135D
:10028000DF1B8B1703170C0D0E0D7F390319622925
:100290000313DC0003170D080313DD0003170F0819
:1002A0000313DE005C08E900FE205D0803178D00E3
:1002B00003135E0803178F008D0A03198F0A0313B7
:1002C0000E2903170313080083186929713084006D
:1002D0008313F701F801F901FA01F101F201F301C9
:1002E000F40170086F046E046D040319A72920300F
:1002F000F5000310E90DEA0DEB0DEC0DF10DF20D1B
:10030000F30DF40D70087402031D90296F08730239
:10031000031D90296E087202031D90296D08710259
:10032000031CA1296D08F1026E08031C6E0FF20276
:100330006F08031C6F0FF3027008031C700FF402A8
:100340000314F70DF80DF90DFA0DF50B7929710865
:100350008000840A72088000840A73088000840A7E
:10036000740880000800DF01DE01DD01DC01E0012E
:100370006008093C031C232AE401E301E201E101D6
:100380000714201020088316870083128710A010FE
:100390002008831687008312201420088316870004
:1003A00083120718CC29E5016508173C031CFA29BC
:1003B0008714A01020088316870003108312E10D14
:1003C000E20DE30DE40D8710A010200883168700CE
:1003D000831220142008831687008312071CF82933
:1003E0000130E1070318E20A0319E30A0319E40ADA
:1003F000E50AD4298714A0102008831687008030CE
:100400008312E3068710A01020088316870083124A
:100410006108F7006208F8006308F9006408FA0050
:100420007708DC0778080318780FDD0779080318C8
:10043000790FDE077A0803187A0FDF070A30E10028
:100440003F20E00AB82983105F08EC005E08EB004B
:100450005D08EA005C08E900F001EF01EE010A30F6
:10046000ED0064210800B630F700FA01F901F80147
:100470006010DF1F492A6014DC09DD09DE09DF098D
:10048000DC0A031D492ADD0A031D492ADE0A031975
:10049000DF0A5C085D045E045F04031D512AF70156
:1004A000602A0310F81B5D2ADC0DDD0DDE0DDF0D6B
:1004B000FA0DF90DF80DF70B512AF8136018F8171B
:1004C0008A150A12332A60080319282BEC006408E5
:1004D0000319282BEC02031C722A7F30EC07031847
:1004E000282B782A8130EC02031C282B0319282B97
:1004F0006C08F700F801F901FA01EB016108EA0064
:10050000EA176208E9006308E8001930EC006708A0
:10051000E80203189B2A0130E90203189B2AEA0229
:1005200003189B2AEB0203189B2AEB0AEA0AE90A42
:100530006708E807CD2A6608E9020318B62A0130E1
:10054000EA020318B62AEB020318B62AEB0AEA0AF3
:100550006608E9076708E807031CCD2AE90A031DB6
:10056000CD2AEA0A031DCD2AEB0ACD2A6508803878
:10057000EA020318CC2A0130EB020318CC2AEB0A5A
:1005800065088038EA076608E907031CAA2AEA0A10
:10059000031DAA2AEB0AAA2A7A14EC0BD02ADB2A1A
:1005A0000310E80DE90DEA0DEB0D0310FA0DF90D3E
:1005B000F80DED0D872A6D1CE32A0310F80CF90CD9
:1005C000FA0CED0CE62AF7030319282BED1B0F2B71
:1005D0000310E80DE90DEA0DEB0D6708E8020318BA
:1005E000FB2A0130E9020318FB2AEA020318FB2A5E
:1005F000EB02031C1E2B6608E9020318062B0130D0
:10060000EA020318062BEB02031C1E2B6508803838
:10061000EA0203180F2B0130EB02031C1E2BFA0A0F
:10062000031D1E2BF90A031D1E2BF80A031D1E2B8A
:10063000F70A0319282BF80CF90CFA0C6108EC00E6
:100640006508EC06EC1F262BF8172C2BF8132C2B27
:10065000F701F801F901FA0108005D08E4006108FA
:10066000E406E41F382B03110310DD1B03146B2B6E
:100670005D08E4006008E5005C08E5020319462B0C
:10068000E41F6B2B0308013A83006B2B6108E50024
:100690005D08E5020319522BE41F6B2B0308013A96
:1006A00083006B2B6208E5005E08E50203195E2BF0
:1006B000E41F6B2B0308013A83006B2B6308E500F2
:1006C0005F08E50203196A2BE41F6B2B0308013A4C
:1006D00083006B2B0310080069080319DC2BF10061
:1006E0006D080319DC2BF10703187D2B7F30F10215
:1006F000031CDC2B0319DC2B812B8130F107031841
:10070000DC2B7108F700F801F901FA016A08F5001D
:10071000F5176B08F4006C08F3001830F100F201D3
:10072000731CAA2B7008FA07031C9C2BF90A031DE3
:100730009C2BF80A0319F2176F08F907031CA32B67
:10074000F80A0319F2176E08EB00EB176B08F807AD
:100750000318F217F20DF80CF90CFA0CF50CF40C66
:10076000F30C0310F10B8F2B0130F7070318DC2B70
:10077000F81BC12BF50DFA0DF90DF80DF703031950
:10078000DC2BF51FD22BFA0A031DD22BF90A031D0D
:10079000D22BF80A031DD22BF80CF90CFA0CF70A2D
:1007A0000319DC2B6A08F2006E08F206F21FDA2B3E
:1007B000F817E02BF813E02BF701F801F901FA0123
:1007C000080080308318E506EA01EB016108E900C2
:1007D0006508E90660080319D12CE800F7006408F1
:1007E0000319DA2CE8020319762C031C342C650853
:1007F000EE00EE176608ED006708EC00EB01031051
:10080000EE0CED0CEC0CEB0CE80BFE2BE91F0B2CAB
:100810006A14EE2C6A1068106A1663308400831321
:10082000032D6A12E91B1E2C681C292CEE0CED0C02
:10083000EC0CEB0CF70A0319E92C292CEE1B2C2CE1
:100840000310EB0DEC0DED0DEE0DF7030319E92C84
:100850001E2C6A17962C6A136108E900E91F322CD6
:10086000EE17E22CEE13E22C6408E800F7006008B3
:10087000E8026108EE00EE176208ED006308EC0084
:10088000EB010310EE0CED0CEC0CEB0CE80B402C28
:10089000E91F4D2CEA14EE2CEA106810EA166730B6
:1008A00084008313032DEA12E91B602C681C6B2C57
:1008B000EE0CED0CEC0CEB0CF70A0319E92C6B2C8D
:1008C000EE1B6E2C0310EB0DEC0DED0DEE0DF70392
:1008D0000319E92C602CEA17962CEA136508E90045
:1008E000E91F742CEE17E22CEE13E22C6508EE00E3
:1008F000EE176608ED006708EC00E91F832CEE1385
:100900006A15EE2C6A11EB016810633084008313C2
:10091000032DE91BAC2C6108E900681C962CEE0C39
:10092000ED0CEC0CEB0CF70A0319E92CEB1FA72CD0
:10093000EC0A031DA72CED0A031DA72CEE0A031DCC
:10094000A72CEE0CED0CEC0CF70A0319E92C6A1B32
:100950002B2CEA1B6D2CCB2C8030EE06EE1FB42C1A
:10096000EE2C6508E900C12C6108E900EE08031DC2
:10097000C12CED08031DC12CEC08031DC12CF7018F
:10098000E22CEE1BCB2C0310EB0DEC0DED0DEE0D60
:10099000F70BC12CE92CE91FCF2CEE17E22CEE133C
:1009A000E22C6408F7006508EE006608ED006708B1
:1009B000EC00E22C6008F7006108EE006208ED0030
:1009C0006308EC006E08F8006D08F9006C08FA0086
:1009D000212DF701F801F901FA01212DEB01EC09B4
:1009E000ED09EE09EB09EB0A031DFC2CEC0A031DD3
:1009F000FC2CED0A0319EE0A6A180A2CEA184C2C92
:100A00006A19822CB12C0008EC07031C0D2DED0A8D
:100A1000031D0D2DEE0A0319681484030008ED0769
:100A2000031C152DEE0A0319681484030008801FA7
:100A3000803AEE07031868146A1A112CEA1A532C2C
:100A4000892C08008E30F7005C08F7025D08F90079
:100A50005E08F800F917F7080319392D0310F90893
:100A6000031D352DF8080319392DF90CF80CF70B77
:100A70002E2DDD1F402DF809F909F80A0319F90A8E
:100A80008A150A12A42A8E30F7005E08F8005D0865
:100A9000F900FA01F808031D572D7908F800F9014B
:100AA0000830F702F808031D572DF7015F2D0310DA
:100AB000F81B5E2DF90DF80DF703572DF8138A1565
:100AC0000A12AA2A0408E1006008E3000319812D34
:100AD0005F08EC005E08EB005D08EA005C08E900D6
:100AE000F001EF012030EE008230ED006C237A0837
:100AF000DF007908DE007808DD007708DC00E30B12
:100B0000682D5F08EC005E08EB005D08EA005C08F9
:100B1000E9006908B63CE900FA016A08ED00EA1745
:100B20000310EA0CEB0CEC0CFA0CF90CF80CF70CBB
:100B3000E90B902DED1FA72DF709F809F909FA091E
:100B4000F70A0319F80A0319F90A0319FA0A7A08C5
:100B5000DF007908DE007808DD007708DC00DF1FA1
:100B6000BE2DE103E116DC09DD09DE09DF09DC0A3F
:100B70000319DD0A0319DE0A0319DF0A3B30E80016
:100B80009A30E700CA30E600E5010A30E300600869
:100B90000319E10A83145C30840083135F08EC00BE
:100BA0005E08EB005D08EA005C08E9006808F000F8
:100BB0006708EF006608EE006508ED00642178081C
:100BC000F708031DF62D600A63020319F62D61086C
:100BD0000319F82D0F3963020319F02D0318282E7D
:100BE000E11B282E611BF82D2030242E2030E1053A
:100BF000E11E062EE1126008031DE1037708E10003
:100C00002D30E900FE206108F700E1016008630271
:100C1000031D142E7708E1002E30E900FE20610844
:100C2000F7002030E10500303030E11E242EE112C3
:100C30006008031DE1037708E1002D30E900FE2084
:100C40006108F700E1013030F7077708E900FE207E
:100C500083106808EC006708EB006608EA00650886
:100C6000E900F001EF01EE010A30ED0064217A089D
:100C7000E8007908E7007808E6007708E500E30B6C
:080C8000CA2D8A150A12302B5F
:1010000003081F398300FF30A000A01520088316B5
:101010008700831220162008831687000C30930067
:10102000283083129400831694131413083083120B
:10103000A300A701A6015C30A5008830A400A1147C
:10104000A901A80183161F149F141F159F110730B3
:101050009C0083131F149F141F159F1183121F10D0
:10106000033083168500051183120515C830E10091
:101070008A113F208A154E30DC008A119F208A1584
:101080006430E1008A113F208A150330DC00013012
:10109000DD008A11D7208A15043003178D00003037
:1010A0008F008A1103130E218A150230DC00C8302C
:1010B000E1008A113F208A15DC0B57280330DC0041
:1010C0000130DD008A11D7208A15083003178D0002
:1010D00000308F008A1103130E218A150230DC00C4
:1010E000C830E1008A113F208A15DC0B70280330DC
:1010F000DC000130DD008A11D7208A150D3003177E
:101100008D0000308F008A1103130E218A150230E2
:10111000DC00C830E1008A113F208A15DC0B8928E9
:101120000330DC000130DD008A11D7208A1512302F
:1011300003178D0000308F008A1103130E218A15CA
:101140000230DC00C830E1008A113F208A15DC0B38
:10115000A2284330AA006830AB007530AC002030C4
:10116000AD005430AE007530AF006E30B000673067
:10117000B1002030B2004130B3006E30B4006830AE
:10118000B500B6010330DC000130DD008A11D72044
:101190008A15B7012A3037078400831380080319A2
:1011A000E2282A303707840083130008DC00E900B6
:1011B0008A11FE208A157830E1008A113F208A15B5
:1011C000B70ACA280230DC00FA30E1008A113F2059
:1011D0008A15DC0BE4284330B8006130B9006E306A
:1011E000BA002030BB006430BC006930BD006530FF
:1011F000BE006E30BF002030C0007430C1007530BA
:10120000C200C3010330DC000230DD008A11D720A8
:101210008A15B70138303707840083138008031913
:10122000222938303707840083130008DC00E900E6
:101230008A11FE208A157830E1008A113F208A1534
:10124000B70A0A290430DC00FA30E1008A113F2095
:101250008A15DC0B24298A11B3218A157A08C70064
:101260007908C6007808C5007708C4000330DC00A0
:101270000130DD008A11D7208A15183003178D0040
:1012800000308F008A1103130E218A150330DC0011
:101290000230DD008A11D7208A15223003178D0015
:1012A00000308F008A1103130E218A150430DC00F0
:1012B0000130DD008A11D7208A152C3003178D00EC
:1012C00000308F008A1103130E218A150430DC00D0
:1012D000FA30E1008A113F208A15DC0B68290430BE
:1012E000DC000130DD008A11D7208A153130031768
:1012F0008D0000308F008A1103130E218A15CB0157
:10130000CA018030C9007F30C8008316851483125B
:101310008518D0291E30E1008A113F208A158316D6
:10132000851483128518D0290230A106A11CC22978
:1013300083160511831205159630E1008A113F20AE
:101340008A154E30DC008A119F208A158A11B3213C
:101350008A157A08C7007908C6007808C50077089A
:10136000C4000430DC000130DD008A11D7208A156A
:10137000363003178D0000308F008A1103130E21C1
:101380008A15C62983160511831205118316851443
:101390008312851CC6293230E1008A113F208A154C
:1013A000A118D8296430E1008A113F208A158529C7
:1013B0008316051483120518022A1E30E1008A11D3
:1013C0003F208A158316051483120518022A8A11F4
:1013D000B3218A157A08C7007908C6007808C500C5
:1013E0007708C400CB01CA018030C9007F30C80033
:1013F000831605148312051CF8293230E1008A1186
:101400003F208A158A11B3218A157A08CF007908FE
:10141000CE007808CD007708CC0044084C02D000FC
:101420004D08D1004508031C450FD1024E08D200DB
:101430004608031C460FD2024F08D3004708031C7E
:10144000470FD302D31B252A292AD301D201D10168
:10145000D0015308DF005208DE005108DD005008BB
:10146000DC008A11332A8A157A08DF007908DE0049
:101470007808DD007708DC005F08E3005E08E20022
:101480005D08E1005C08E0002708E7002608E600A8
:101490002508E5002408E4008A1163228A157A08E9
:1014A000D7007908D6007808D5007708D400570807
:1014B000DF005608DE005508DD005408DC00CD30A2
:1014C000E300CC30E2004C30E1007C30E0008A11D7
:1014D0002D238A15031C702AD701D601D501D4010A
:1014E0005708EC005608EB005508EA005408E900DC
:1014F000F001EF012030EE008230ED008A116C2304
:101500008A157A08DF007908DE007808DD007708A0
:10151000DC0083105F08E3005E08E2005D08E10084
:101520005C08E000E701E601E5017E30E4008A1195
:10153000E1238A157A08DF007908DE007808DD00EB
:101540007708DC008A11222D8A15DE017808DD007B
:101550008A11432D8A157A08E3007908E200780899
:10156000E1007708E000E701E6012030E500823085
:10157000E4008A1163228A157A08D7007908D60018
:101580007808D5007708D40083145708E30056087C
:10159000E2005508E1005408E0004B08E7004A0863
:1015A000E6004908E5004808E4008A11E1238A15AD
:1015B0007A08DB007908DA007808D9007708D800C3
:1015C0005B08DF005A08DE005908DD005808DC001F
:1015D000E301E201E101E0018A112D238A15031CD8
:1015E000F42A5908803AD900CD30DF00CC30DE0033
:1015F0004C30DD007B30DC005B08E3005A08E20081
:101600005908E1005808E0008A112D238A150318B3
:101610000B2B031D432B0430DC000230DD008A114C
:10162000D7208A153B3003178D0000308F008A11B8
:1016300003130E218A150430DC000230DD008A110C
:10164000D7208A15033084005708DF005608DE00D3
:101650005508DD005408DC000130E0008A11622DDD
:101660008A152030E9008A11FE208A156730E900CA
:101670008A11FE208A155708CB005608CA00550863
:10168000C9005408C8000230DC009630E1008A111D
:0C1690003F208A15DC0B452B85296300E8
:02400E003A3F37
:00000001FF
;PIC16F877A
;CRC=AD2B  CREATED="21-Dec-25 10:43"
