:1000000008308A00002800004B34EF3420326F376C
:1000100067172E170000D3306E10F330EE33210037
:10002000C430EE33202A613965172E170000D23014
:10003000771D25367510201020100000C3306E1D6E
:10004000A51AAE18661067100002433084008313AF
:100050000008031938280630F800F701F70B2E289E
:10006000F80B2D287B30F700F70B3428800B2B285A
:10007000080094138C11550893000230941B4728F4
:100080008316141941280030111B01308312F80027
:1000900008008316111411184B2883122208D5006A
:1000A000392053082304D400D500392083161115B4
:1000B0001119582883120800003021180130D1048A
:1000C0005108D300492051080438D200D3004920F8
:1000D00069286A2800005108FB39D200D300492062
:1000E0005330F700F70B7228080021104508F0394B
:1000F000C600D1005C20450EF700F030F705770808
:10010000F039C600D1005C2008004208A200D301EB
:1001100049202830C30025200330C5007520053054
:10012000C30025200330C50075200530C3002520FD
:100130000330C50075200530C30025200230C500FE
:1001400075200530C30025202830C50075203230C9
:10015000C30025200C30C50075203230C300252097
:100160000130C50075203230C30025200630C5009F
:1001700075203230C30025208A150A124228430810
:10018000023A0319CA28013A0319D128073A031978
:10019000D828DF28C0304207FF3EC400C5007520C4
:1001A000E52894304207FF3EC400C5007520E528CD
:1001B000D4304207FF3EC400C5007520E5288030DA
:1001C0004207FF3EC400C5007520080021144F08F7
:1001D000F039D000D1005C204F0EF700F030F70569
:1001E0007708F039D000D1005C2008000B08C2006D
:1001F0008B13831603178C170C1400000000831256
:100200000313C21B8B1703170C087F3903194A29E4
:100210000313C20003170D080313C30003170F08CD
:100220000313C4004208CF00E620430803178D00E3
:100230000313440803178F0003130B08C5008B1327
:10024000831603178C170C1400000000831203138D
:10025000C51B8B1703170C0D0E0D7F3903194A2987
:100260000313C20003170D080313C30003170F087D
:100270000313C4004208CF00E620430803178D0093
:100280000313440803178F008D0A03198F0A031301
:10029000F6280317031308008318512957308400E8
:1002A0008313F701F801F901FA01D701D801D90147
:1002B000DA01560855045404530403198F292030D9
:1002C000DB000310CF0DD00DD10DD20DD70DD80D01
:1002D000D90DDA0D56085A02031D7829550859021E
:1002E000031D782954085802031D78295308570222
:1002F000031C89295308D7025408031C540FD80241
:100300005508031C550FD9025608031C560FDA0274
:100310000314F70DF80DF90DFA0DDB0B61295708E1
:100320008000840A58088000840A59088000840AE2
:100330005A0880000800C501C401C301C201C601FA
:100340004608133C031C2E2ACA01C901C801C70173
:10035000CD01CC01A01020088316870083128710DE
:1003600020142008831687008312071CC8294D0813
:10037000EA3C031CC829031DC1294C085F3C031C2F
:10038000C829CC0A0319CD0AC529C6290000B029FD
:100390004D08E93C0318D829FF3A031DD3294C081E
:1003A0005F3C0318D829F701F801F901FA011E2A68
:1003B000CB014B08173C031C052AA010200883160C
:1003C000870083128714E429E52900000310C70D74
:1003D000C80DC90DCA0DA01020088316870083120E
:1003E0008710F229F32900002014200883168700C3
:1003F0008312071C032A0130C7070318C80A031910
:10040000C90A0319CA0ACB0AD929A01020088316E1
:100410008700831287140C2A0D2A00008030C90639
:10042000A010200883168700831287104708F70062
:100430004808F8004908F9004A08FA007708C20796
:1004400078080318780FC30779080318790FC407D1
:100450007A0803187A0FC507C60AA0298310450831
:10046000D2004408D1004308D0004208CF00D60192
:10047000D501D4011430D3004C210800B630F70068
:10048000FA01F901F8014610C51F542A4614C209A1
:10049000C309C409C509C20A031D542AC30A031D9E
:1004A000542AC40A0319C50A4208430444044504F3
:1004B000031D5C2AF7016B2A0310F81B682AC20D82
:1004C000C30DC40DC50DFA0DF90DF80DF70B5C2A1F
:1004D000F8134618F8178A150A120C29460803194A
:1004E000332BD2004A080319332BD202031C7D2A76
:1004F0007F30D2070318332B832A8130D202031CAA
:10050000332B0319332B5208F700F801F901FA01D4
:10051000D1014708D000D0174808CF004908CE00C5
:100520001930D2004D08CE020318A62A0130CF029E
:100530000318A62AD0020318A62AD1020318A62A55
:10054000D10AD00ACF0A4D08CE07D82A4C08CF02CC
:100550000318C12A0130D0020318C12AD10203189E
:10056000C12AD10AD00A4C08CF074D08CE07031C78
:10057000D82ACF0A031DD82AD00A031DD82AD10AA7
:10058000D82A4B088038D0020318D72A0130D1026C
:100590000318D72AD10A4B088038D0074C08CF0758
:1005A000031CB52AD00A031DB52AD10AB52A7A142C
:1005B000D20BDB2AE62A0310CE0DCF0DD00DD10DC4
:1005C0000310FA0DF90DF80DD30D922A531CEE2AE3
:1005D0000310F80CF90CFA0CD30CF12AF7030319E9
:1005E000332BD31B1A2B0310CE0DCF0DD00DD10DF5
:1005F0004D08CE020318062B0130CF020318062B3C
:10060000D0020318062BD102031C292B4C08CF0261
:100610000318112B0130D0020318112BD102031C37
:10062000292B4B088038D00203181A2B0130D10235
:10063000031C292BFA0A031D292BF90A031D292B58
:10064000F80A031D292BF70A0319332BF80CF90CB0
:10065000FA0C4708D2004B08D206D21F312BF817EC
:10066000372BF813372BF701F801F901FA018A1536
:100670000A1227294308CA004708CA06CA1F452B81
:1006800003110310C31B0314782B4308CA00460848
:10069000CB004208CB020319532BCA1F782B030847
:1006A000013A8300782B4708CB004308CB0203199B
:1006B0005F2BCA1F782B0308013A8300782B480868
:1006C000CB004408CB0203196B2BCA1F782B0308FD
:1006D000013A8300782B4908CB004508CB02031967
:1006E000772BCA1F782B0308013A8300782B03105D
:1006F000080080308318C706CC01CD014308CB0029
:100700004708CB0642080319692CCA00F7004608BF
:100710000319722CCA0203190E2C031CCC2B470898
:10072000D000D0174808CF004908CE00CD010310F3
:10073000D00CCF0CCE0CCD0CCA0B962BCB1FA32B01
:100740004C14862C4C104A104C16453084008313F0
:100750009B2C4C12CB1BB62B4A1CC12BD00CCF0CA4
:10076000CE0CCD0CF70A0319812CC12BD01BC42B46
:100770000310CD0DCE0DCF0DD00DF7030319812C35
:10078000B62B4C172E2C4C134308CB00CB1FCA2B77
:10079000D0177A2CD0137A2C4608CA00F7004208EA
:1007A000CA024308D000D0174408CF004508CE0045
:1007B000CD010310D00CCF0CCE0CCD0CCA0BD82B16
:1007C000CB1FE52BCC14862CCC104A10CC1649300C
:1007D000840083139B2CCC12CB1BF82B4A1C032CBC
:1007E000D00CCF0CCE0CCD0CF70A0319812C032CA6
:1007F000D01B062C0310CD0DCE0DCF0DD00DF70361
:100800000319812CF82BCC172E2CCC134708CB00C6
:10081000CB1F0C2CD0177A2CD0137A2C4708D00081
:10082000D0174808CF004908CE00CB1F1B2CD0138F
:100830004C15862C4C11CD014A1045308400831391
:100840009B2CCB1B442C4308CB004A1C2E2CD00CD9
:10085000CF0CCE0CCD0CF70A0319812CCD1F3F2CE9
:10086000CE0A031D3F2CCF0A031D3F2CD00A031DC7
:100870003F2CD00CCF0CCE0CF70A0319812C4C1B4B
:10088000C32BCC1B052C632C8030D006D01F4C2CE6
:10089000862C4708CB00592C4308CB00D008031DF9
:1008A000592CCF08031D592CCE08031D592CF701D4
:1008B0007A2CD01B632C0310CD0DCE0DCF0DD00D97
:1008C000F70B592C812CCB1F672CD0177A2CD01307
:1008D0007A2C4608F7004708D0004808CF0049089E
:1008E000CE007A2C4208F7004308D0004408CF001D
:1008F0004508CE005008F8004F08F9004E08FA00ED
:10090000B92CF701F801F901FA01B92CCD01CE0992
:10091000CF09D009CD09CD0A031D942CCE0A031DA1
:10092000942CCF0A0319D00A4C18A22BCC18E42B14
:100930004C191A2C492C0008CE07031CA52CCF0AF1
:10094000031DA52CD00A03194A1484030008CF07FD
:10095000031CAD2CD00A03194A1484030008801F1D
:10096000803AD00703184A144C1AA92BCC1AEB2B47
:10097000212C8A150A126C290B08C3008B138316CD
:1009800003178C170C140000000083120313C31B01
:100990008B170318F32C03170C087F390313C300BC
:1009A00003170D080313C40003170F080313C50032
:1009B0004308CF00E620440803178D0003134508C1
:1009C00003178F0003130B08C6008B13831603173E
:1009D0008C170C140000000083120313C61B8B1726
:1009E000C20BF32C122D03170C0D0E0D7F390313C0
:1009F000C30003170D080313C40003170F080313E4
:100A0000C5004308CF00E620440803178D000313F8
:100A1000450803178F008D0A03198F0A031003136B
:100A2000C20BBC2C08000408C6003B30CD009A3035
:100A3000CC00CA30CB00CA010A30C800831442304F
:100A4000840083134508D2004408D1004308D00035
:100A50004208CF004D08D6004C08D5004B08D40002
:100A60004A08D3004C217808F708031D4A2D48088E
:100A7000013A03194A2D460803194B2D0F39480234
:100A80000319442D0318502DC61B502D461B4B2D0A
:100A900020304C2DC6013030F7077708CF00E62014
:100AA00083104D08D2004C08D1004B08D0004A08F2
:100AB000CF00D601D501D4010A30D3004C217A08E9
:100AC000CD007908CC007808CB007708CA00C80BA5
:100AD0001E2D8A150A12DD290408C7004608C90020
:100AE0000319FE2D4508D2004408D1004308D00068
:100AF0004208CF00D601D5012030D4008230D30087
:100B00004F080319F02DD70053080319F02DD7070C
:100B10000318912D7F30D702031CF02D0319F02DFF
:100B2000952D8130D7070318F02D5708F700F801ED
:100B3000F901FA015008DB00DB175108DA0052080E
:100B4000D9001830D700D801591CBE2D5608FA0715
:100B5000031CB02DF90A031DB02DF80A0319D8178C
:100B60005508F907031CB72DF80A0319D8175408BC
:100B7000D100D1175108F8070318D817D80DF80C71
:100B8000F90CFA0CDB0CDA0CD90C0310D70BA32DE3
:100B90000130F7070318F02DF81BD52DDB0DFA0DEA
:100BA000F90DF80DF7030319F02DDB1FE62DFA0AF6
:100BB000031DE62DF90A031DE62DF80A031DE62D97
:100BC000F80CF90CFA0CF70A0319F02D5008D800AC
:100BD0005408D806D81FEE2DF817F42DF813F42D6D
:100BE000F701F801F901FA017A08C5007908C40093
:100BF0007808C3007708C200C90B722D4508D200DF
:100C00004408D1004308D0004208CF004F08B63C4A
:100C1000CF00FA015008D300D0170310D00CD10C2C
:100C2000D20CFA0CF90CF80CF70CCF0B0D2ED31FCD
:100C3000242EF709F809F909FA09F70A0319F80A3D
:100C40000319F90A0319FA0A7A08C5007908C400D9
:100C50007808C3007708C200C51F3B2EC703C7161C
:100C6000C209C309C409C509C20A0319C30A031981
:100C7000C40A0319C50A3B30CE009A30CD00CA30F1
:100C8000CC00CB010A30C90046080319C70A8314F7
:100C90004230840083134508D2004408D100430841
:100CA000D0004208CF004E08D6004D08D5004C08B1
:100CB000D4004B08D3004C217808F708031D732E8D
:100CC000460A49020319732E47080319752E0F3976
:100CD000490203196D2E0318A52EC71BA52E471B0D
:100CE000752E2030A12E2030C705C71E832EC712B7
:100CF0004608031DC7037708C7002D30CF00E62044
:100D00004708F700C70146084902031D912E7708DE
:100D1000C7002E30CF00E6204708F7002030C70577
:100D200000303030C71EA12EC7124608031DC7036E
:100D30007708C7002D30CF00E6204708F700C7012D
:100D40003030F7077708CF00E62083104E08D20036
:100D50004D08D1004C08D0004B08CF00D601D5017A
:100D6000D4010A30D3004C217A08CE007908CD0096
:100D70007808CC007708CB00C90B472E8A150A12D9
:020D80000B2A3C
:1010000003081F398300FF30A000A01520088316B5
:101010008700831220162008831687000C30930067
:10102000283083129400831694131413083083120B
:10103000A300A701A6015C30A5008630A400AB0187
:10104000AA01A901A801AD01AC0183161F149F14C8
:101050001F159F1107309C0083131F149F141F1529
:101060009F1183121F100130831685000511831212
:101070000515C830C3008A1125208A154E30C200DC
:101080008A1185288A156430C3008A1125208A15A3
:101090000130C200C3008A11BF208A150430031733
:1010A0008D0000308F008A110313F6208A1504305A
:1010B000C200FA30C3008A1125208A15C20B5928B4
:1010C0008A119B218A157A08AB007908AA00780852
:1010D000A9007708A8000130C200C3008A11BF2010
:1010E0008A150B3003178D0000308F008A1103130F
:1010F000F6208A150230C200FA30C3008A1125207A
:101100008A15C20B7C28B101C030B000F930AF00A5
:101110008830AE008316051483120518C0281430D9
:10112000C3008A1125208A15831605148312051819
:10113000C0280130C2000230C3008A11BF208A15C6
:10114000103003178D0000308F008A110313F62032
:101150008A158A119B218A157A08AB007908AA00A2
:101160007808A9007708A800B101C030B000F930B4
:10117000AF008830AE00831605148312051CBB280F
:101180008A119B218A157A08B5007908B40078087D
:10119000B3007708B20028083202B6003308B7005F
:1011A0002908031C290FB7023408B8002A08031CB9
:1011B0002A0FB8023508B9002B08031C2B0FB902FF
:1011C000B91BE3280229B91FFE283908FE3C031881
:1011D0000229FF3A031DFE283808FE3C03180229A5
:1011E000FF3A031DFE283708FB3C03180229FF3A8B
:1011F000031DFE283608183C03180229B901B8015E
:10120000B701B6013908C5003808C4003708C30063
:101210003608C2008A113E2A8A157A08C500790864
:10122000C4007808C3007708C2004508C900440814
:10123000C8004308C7004208C6002708CD0026089A
:10124000CC002508CB002408CA008A116E2A8A1512
:101250007A08BD007908BC007808BB007708BA009E
:10126000C501C4018030C3007F30C2003D08C90001
:101270003C08C8003B08C7003A08C6008A113A2358
:101280008A15031C59293D08C5003C08C4003B08C9
:10129000C3003A08C200C901C801C7017F30C600B7
:1012A0008A113A238A15031C5929BD01BC01BB01CF
:1012B000BA0183143D08C5003C08C4003B08C300C4
:1012C0003A08C2003108C9003008C8002F08C7001A
:1012D0002E08C6008A11792B8A157A08C100790870
:1012E000C0007808BF007708BE004108C50040086C
:1012F000C4003F08C3003E08C200C901C801C701BD
:10130000C6018A113A238A15031C89293F08803AAD
:10131000BF00C501C401C3017E30C2004108C9003D
:101320004008C8003F08C7003E08C6008A113A239B
:101330008A150318BF290319BF293D08C5003C08B9
:10134000C4003B08C3003A08C200C901C801C70174
:10135000C6018A113A238A15031D232A3108C500C4
:101360003008C4002F08C3002E08C200C901C801FC
:10137000C701C6018A113A238A150319232A0130AD
:10138000C200C3008A11BF208A15173003178D00D1
:1013900000308F00031004300313C2008A11BC24F4
:1013A0008A15413084003508C5003408C40033086C
:1013B000C3003208C2008A11132D8A151A30031790
:1013C0008D0000308F00031405300313C2008A1112
:1013D000BC248A150130C2000230C3008A11BF202C
:1013E0008A151E3003178D0000308F000310043063
:1013F0000313C2008A11BC248A15043084003D08FE
:10140000C5003C08C4003B08C3003A08C2000130D4
:10141000C6008A116C2D8A152030CF008A11E62073
:101420008A156730CF008A11E6208A152030CF0058
:101430008A11E6208A153D08B1003C08B0003B083F
:10144000AF003A08AE00C830C3008A1125208A15C3
:041450008A28630083
:02400E003A3F37
:00000001FF
;PIC16F877A
;CRC=5BBD  CREATED="29-Dec-25 17:15"
