:1000000008308A0000280000CC3761326937670069
:10001000CC376132693767170001CC3761326937F5
:1000200067172E00CC376132693767172E1700012A
:10003000D3306E10F330EE3321002010201020104A
:1000400020102010201020005D3084008313000851
:10005000031937280630F800F701F70B2D28F80BA5
:100060002C287B30F700F70B3328800B2A28080058
:1000700094138C116B0893000230941B462883164E
:10008000141940280030111B01308312F8000800B9
:100090008316111411184A2883122208EB00382005
:1000A00069082304EA00EB003820831611151119A2
:1000B000572883120800003021180130E704670830
:1000C000E900482067080438E800E900482068286B
:1000D000692800006708FB39E800E9004820533030
:1000E000F700F70B7128080021105B08F039DC00DD
:1000F000E7005B205B0EF700F030F7057708F0397A
:10010000DC00E7005B2008005808A200E901482055
:100110002830DD0024200330DB0074200530DD00B2
:1001200024200330DB0074200530DD002420033060
:10013000DB0074200530DD0024200230DB00742059
:100140000530DD0024202830DB0074203230DD0053
:1001500024200C30DB0074203230DD0024200130FC
:10016000DB0074203230DD0024200630DB007420F8
:100170003230DD00242008005908023A0319C7284C
:10018000013A0319CE28073A0319D528DC28C030D4
:100190005807FF3EDA00DB007420E228943058074D
:1001A000FF3EDA00DB007420E228D4305807FF3E1F
:1001B000DA00DB007420E22880305807FF3EDA00C6
:1001C000DB007420080021146508F039E600E70020
:1001D0005B20650EF700F030F7057708F039E60090
:1001E000E7005B2008000B08D8008B138316031769
:1001F0008C170C140000000083120313D81B8B17FC
:1002000003170C087F39031947290313D800031774
:100210000D080313D90003170F080313DA00580859
:10022000E500E320590803178D0003135A0803174C
:100230008F0003130B08DB008B13831603178C1737
:100240000C140000000083120313DB1B8B17031731
:100250000C0D0E0D7F39031947290313D80003171E
:100260000D080313D90003170F080313DA00580809
:10027000E500E320590803178D0003135A080317FC
:100280008F008D0A03198F0A0313F3280317031332
:10029000080083184E296D3084008313F701F8019C
:1002A000F901FA01ED01EE01EF01F0016C086B04B8
:1002B0006A04690403198C292030F1000310E50D4C
:1002C000E60DE70DE80DED0DEE0DEF0DF00D6C08F0
:1002D0007002031D75296B086F02031D75296A08DA
:1002E0006E02031D752969086D02031C86296908C1
:1002F000ED026A08031C6A0FEE026B08031C6B0F09
:10030000EF026C08031C6C0FF0020314F70DF80DDC
:10031000F90DFA0DF10B5E296D088000840A6E0854
:100320008000840A6F088000840A7008800008003A
:10033000DB01DA01D901D801DC015C08093C031CAE
:10034000082AE001DF01DE01DD010714201020088A
:100350008316870083128710A01020088316870059
:100360008312201420088316870083120718B129EE
:10037000E1016108173C031CDF298714A010200845
:100380008316870003108312DD0DDE0DDF0DE00DF7
:100390008710A010200883168700831220142008DD
:1003A000831687008312071CDD290130DD0703183F
:1003B000DE0A0319DF0A0319E00AE10AB9298714E2
:1003C000A01020088316870080308312DF06871074
:1003D000A01020088316870083125D08F7005E08CE
:1003E000F8005F08F9006008FA007708D807780875
:1003F0000318780FD90779080318790FDA077A08F4
:1004000003187A0FDB070A30DD002420DC0A9D295F
:1004100083105B08E8005A08E7005908E60058080E
:10042000E500EC01EB01EA010A30E900492108008E
:10043000B630F700FA01F901F8015C10DB1F2E2A33
:100440005C14D809D909DA09DB09D80A031D2E2A58
:10045000D90A031D2E2ADA0A0319DB0A580859049F
:100460005A045B04031D362AF701452A0310F81BC2
:10047000422AD80DD90DDA0DDB0DFA0DF90DF80D64
:10048000F70B362AF8135C18F8178A150A12F129A7
:100490005C0803190D2BE800600803190D2BE80216
:1004A000031C572A7F30E80703180D2B5D2A813083
:1004B000E802031C0D2B03190D2B6808F700F80147
:1004C000F901FA01E7015D08E600E6175E08E500BC
:1004D0005F08E4001930E8006308E4020318802A8A
:1004E0000130E5020318802AE6020318802AE70299
:1004F0000318802AE70AE60AE50A6308E407B22A35
:100500006208E50203189B2A0130E60203189B2AC1
:10051000E70203189B2AE70AE60A6208E507630870
:10052000E407031CB22AE50A031DB22AE60A031DEA
:10053000B22AE70AB22A61088038E6020318B12A13
:100540000130E7020318B12AE70A61088038E6079C
:100550006208E507031C8F2AE60A031D8F2AE70AB3
:100560008F2A7A14E80BB52AC02A0310E40DE50D92
:10057000E60DE70D0310FA0DF90DF80DE90D6C2AE3
:10058000691CC82A0310F80CF90CFA0CE90CCB2AE8
:10059000F70303190D2BE91BF42A0310E40DE50DF5
:1005A000E60DE70D6308E4020318E02A0130E502D6
:1005B0000318E02AE6020318E02AE702031C032BD3
:1005C0006208E5020318EB2A0130E6020318EB2A61
:1005D000E702031C032B61088038E6020318F42AA3
:1005E0000130E702031C032BFA0A031D032BF90A4F
:1005F000031D032BF80A031D032BF70A03190D2B08
:10060000F80CF90CFA0C5D08E8006108E806E81F30
:100610000B2BF817112BF813112BF701F801F90127
:10062000FA018A150A120C2A80308318DD06E201CD
:10063000E3015908E1005D08E10658080319042C9C
:10064000E000F7005C0803190D2CE0020319A92B48
:10065000031C672B5D08E600E6175E08E5005F08EF
:10066000E400E3010310E60CE50CE40CE30CE00B02
:10067000312BE11F3E2B6214212C62106010621698
:100680005B3084008313362C6212E11B512B601CFB
:100690005C2BE60CE50CE40CE30CF70A03191C2CAC
:1006A0005C2BE61B5F2B0310E30DE40DE50DE60D5F
:1006B000F70303191C2C512B6217C92B621359081D
:1006C000E100E11F652BE617152CE613152C5C08DD
:1006D000E000F7005808E0025908E600E6175A085B
:1006E000E5005B08E400E3010310E60CE50CE40C14
:1006F000E30CE00B732BE11F802BE214212CE210A2
:100700006010E2165F3084008313362CE212E11B86
:10071000932B601C9E2BE60CE50CE40CE30CF70A13
:1007200003191C2C9E2BE61BA12B0310E30DE40DDB
:10073000E50DE60DF70303191C2C932BE217C92BCB
:10074000E2135D08E100E11FA72BE617152CE61365
:10075000152C5D08E600E6175E08E5005F08E4007A
:10076000E11FB62BE6136215212C6211E301601024
:100770005B3084008313362CE11BDF2B5908E1002A
:10078000601CC92BE60CE50CE40CE30CF70A03191A
:100790001C2CE31FDA2BE40A031DDA2BE50A031DE8
:1007A000DA2BE60A031DDA2BE60CE50CE40CF70A5B
:1007B00003191C2C621B5E2BE21BA02BFE2B80302E
:1007C000E606E61FE72B212C5D08E100F42B590813
:1007D000E100E608031DF42BE508031DF42BE408F3
:1007E000031DF42BF701152CE61BFE2B0310E30D64
:1007F000E40DE50DE60DF70BF42B1C2CE11F022C8C
:10080000E617152CE613152C5C08F7005D08E600CA
:100810005E08E5005F08E400152C5808F700590849
:10082000E6005A08E5005B08E4006608F800650881
:10083000F9006408FA00542CF701F801F901FA01F3
:10084000542CE301E409E509E609E309E30A031D81
:100850002F2CE40A031D2F2CE50A0319E60A62185F
:100860003D2BE2187F2B6219B52BE42B0008E4071F
:10087000031C402CE50A031D402CE60A03196014F2
:1008800084030008E507031C482CE60A03196014DA
:1008900084030008801F803AE60703186014621A78
:1008A000442BE21A862BBC2B8A150A12282A5D08D3
:1008B000E4006108E406E41F622C03110310DD1B51
:1008C0000314952C5D08E4006008E5005C08E5026F
:1008D0000319702CE41F952C0308013A8300952C12
:1008E0006108E5005D08E50203197C2CE41F952CE6
:1008F0000308013A8300952C6208E5005E08E502D2
:100900000319882CE41F952C0308013A8300952CC9
:100910006308E5005F08E5020319942CE41F952C99
:100920000308013A8300952C03108A150A12502AF5
:100930000408DD005C08DF0003192A2D5B08E800CD
:100940005A08E7005908E6005808E500EC01EB01F9
:100950002030EA008230E900650803191C2DED0003
:10096000690803191C2DED070318BD2C7F30ED021B
:10097000031C1C2D03191C2DC12C8130ED070318FD
:100980001C2D6D08F700F801F901FA016608F10065
:10099000F1176708F0006808EF001830ED00EE016D
:1009A0006F1CEA2C6C08FA07031CDC2CF90A031DE7
:1009B000DC2CF80A0319EE176B08F907031CE32C6B
:1009C000F80A0319EE176A08E700E7176708F8073F
:1009D0000318EE17EE0DF80CF90CFA0CF10CF00CF4
:1009E000EF0C0310ED0BCF2C0130F70703181C2D73
:1009F000F81B012DF10DFA0DF90DF80DF703031990
:100A00001C2DF11F122DFA0A031D122DF90A031DC8
:100A1000122DF80A031D122DF80CF90CFA0CF70A26
:100A200003191C2D6608EE006A08EE06EE1F1A2D4B
:100A3000F817202DF813202DF701F801F901FA011C
:100A40007A08DB007908DA007808D9007708D8003E
:100A5000DF0B9E2C5B08E8005A08E7005908E60007
:100A60005808E5006508B63CE500FA016608E900AB
:100A7000E6170310E60CE70CE80CFA0CF90CF80C7E
:100A8000F70CE50B392DE91F502DF709F809F90985
:100A9000FA09F70A0319F80A0319F90A0319FA0AF5
:100AA0007A08DB007908DA007808D9007708D800DE
:100AB000DB1F672DDD03DD16D809D909DA09DB094B
:100AC000D80A0319D90A0319DA0A0319DB0A3B30D9
:100AD000E4009A30E300CA30E200E1010A30DF00AE
:100AE0005C080319DD0A83145830840083135B0803
:100AF000E8005A08E7005908E6005808E5006408CD
:100B0000EC006308EB006208EA006108E900492193
:100B10007808F708031D9F2D5C0A5F0203199F2DBB
:100B20005D080319A12D0F395F020319992D0318D0
:100B3000D12DDD1BD12D5D1BA12D2030CD2D2030E1
:100B4000DD05DD1EAF2DDD125C08031DDD0377081A
:100B5000DD002D30E500E3205D08F700DD015C08D5
:100B60005F02031DBD2D7708DD002E30E500E32078
:100B70005D08F7002030DD0500303030DD1ECD2D62
:100B8000DD125C08031DDD037708DD002D30E50074
:100B9000E3205D08F700DD013030F7077708E50056
:100BA000E32083106408E8006308E7006208E600B9
:100BB0006108E500EC01EB01EA010A30E900492196
:100BC0007A08E4007908E3007808E2007708E10099
:0A0BD000DF0B732D8A150A12682A44
:1010000003081F398300FF30A000A01520088316B5
:101010008700831220162008831687000C30930067
:10102000283083129400831694131413083083120B
:10103000A300A701A030A6000C30A5008E30A400AC
:10104000A114A901A80183161F149F141F159F1135
:1010500007309C0083131F149F141F159F118312C8
:101060001F10033083168500051183120515C83043
:10107000DD008A1124208A154E30D8008A11842080
:101080008A156430DD008A1124208A150330D800C7
:101090000130D9008A11BC208A15043003178D0055
:1010A00000308F008A110313F3208A150530DD000C
:1010B0008A1124208A150330D8000130D9008A1102
:1010C000BC208A15083003178D0000308F008A116C
:1010D0000313F3208A150530DD008A1124208A15B8
:1010E0000330D8000130D9008A11BC208A150D3098
:1010F00003178D0000308F008A110313F3208A1527
:101100000530DD008A1124208A150330D800013013
:10111000D9008A11BC208A15123003178D000030C7
:101120008F008A110313F3208A150530DD008A1120
:1011300024208A154330AA006830AB007530AC001B
:101140002030AD005430AE007530AF006E30B000CE
:101150006730B1002030B2004130B3006E30B400CF
:101160006830B500B6010330D8000130D9008A11CB
:10117000BC208A15B7012A30370784008313800802
:101180000319D3282A303707840083130008D800B6
:10119000E5008A11E3208A150A30DD008A11242037
:1011A0008A15B70ABB280A30DD008A1124208A1567
:1011B0004330B8006130B9006E30BA002030BB0057
:1011C0006430BC006930BD006530BE006E30BF00C9
:1011D0002030C0007430C1007530C200C30103303C
:1011E000D8000230D9008A11BC208A15B7013830E6
:1011F000370784008313800803190F293830370715
:10120000840083130008D800E5008A11E3208A15C2
:101210000A30DD008A1124208A15B70AF728143015
:10122000DD008A1124208A158A1198218A157A08EE
:10123000C7007908C6007808C5007708C4000130E7
:10124000DB008A1174208A150230D8000130D900E1
:101250008A11BC208A15183003178D0000308F00CA
:101260008A110313F3208A151430DD008A1124201B
:101270008A150230D8000130D9008A11BC208A15A5
:101280001D3003178D0000308F008A110313F320E7
:101290008A151430DD008A1124208A15CB01CA0179
:1012A000FA30C9008830C800831685148312851867
:1012B00099290530DD008A1124208A1583168514AA
:1012C0008312851899290230A106A11C862983164C
:1012D0000511831205153230DD008A1124208A158C
:1012E0004E30D8008A1184208A158A1198218A15D7
:1012F0007A08C7007908C6007808C5007708C400D6
:101300006430DD008A1124208A158F290530DD0024
:101310008A1124208A15831605118312051183165C
:1013200085148312851C8F293230DD008A11242018
:101330008A15A1189C2954298316051483120518AF
:10134000C0290A30DD008A1124208A15831605146D
:1013500083120518C0298A1198218A157A08C700B6
:101360007908C6007808C5007708C40083160514FC
:101370008312051CB6293230DD008A1124208A151B
:101380008A1198218A157A08CF007908CE0078084A
:10139000CD007708CC0044084C02D0004D08D100A5
:1013A0004508031C450FD1024E08D2004608031C15
:1013B000460FD2024F08D3004708031C470FD30241
:1013C000D31BE329E729D301D201D101D00153086E
:1013D000DB005208DA005108D9005008D8008A1101
:1013E000182A8A157A08DB007908DA007808D9000B
:1013F0007708D8005B08DF005A08DE005908DD00D6
:101400005808DC002708E3002608E2002508E10070
:101410002408E0008A11482A8A157A08D70079083A
:10142000D6007808D5007708D40083145708DB006D
:101430005608DA005508D9005408D8004B08DF00D8
:101440004A08DE004908DD004808DC008A11142B38
:101450008A157A08DB007908DA007808D90077085D
:10146000D800F7005908F8005A08F9005B08FA009C
:10147000F8137A08DB007908DA007808D9007708D1
:10148000D800DF01DE01DD017F30DC005B08E30016
:101490005A08E2005908E1005808E0008A11572C68
:1014A0008A150318552A031D7B2A0130D800D9005C
:1014B0008A11BC208A15053084005708DB005608C5
:1014C000DA005508D9005408D800DC018A11982C9C
:1014D0008A152030E5008A11E3208A156730E5007F
:1014E0008A11E3208A155708CB005608CA00550810
:1014F000C9005408C8009630DD008A1124208A15DE
:041500005429630007
:02400E003A3F37
:00000001FF
;PIC16F877A
;CRC=46DA  CREATED="21-Dec-25 10:18"
