:1000000001308A003F29000049194310CC214410D7
:10001000D422532A0000D024C3183623B81BB7209B
:1000200000002730840083130008031924280630B9
:10003000F800F701F70B1A28F80B19287B30F700A6
:10004000F70B2028800B1728080094138C112F0819
:1000500093000230941B3328831614192D28003086
:10006000111B01308312F8000800831611141118B7
:10007000372883122208AF0025202D082304AE0064
:10008000AF0025208316111511194428831208008A
:10009000003021180130AB042B08AD0035202B08AF
:1000A0000438AC00AD0035205528562800002B0838
:1000B000FB39AC00AD0035205330F700F70B5E285C
:1000C000080021102908F039AA00AB004820290EA9
:1000D000F700F030F7057708F039AA00AB004820A8
:1000E00008002608A200AD0135202830A700112005
:1000F0000330A90061200530A70011200330A900BA
:1001000061200530A70011200330A90061200530CF
:10011000A70011200230A90061200530A70011209E
:100120002830A90061203230A70011200C30A9002E
:1001300061203230A70011200130A9006120323047
:10014000A70011200630A90061203230A70011203D
:100150008A110A126D290830A300AD0135208A11D9
:100160000A126E292708023A0319BD28013A031919
:10017000C428073A0319CB28D228C0302607FF3EEF
:10018000A800A9006120D82894302607FF3EA800C7
:10019000A9006120D828D4302607FF3EA800A90076
:1001A0006120D82880302607FF3EA800A9006120E2
:1001B000080021142908F039AA00AB004820290EB4
:1001C000F700F030F7057708F039AA00AB004820B7
:1001D00008000B08A6008B13831603178C170C144A
:1001E0000000000083120313A61B8B1703170C08D3
:1001F0007F3903193D290313A60003170D080313C4
:10020000A70003170F080313A8002608A900D92088
:10021000270803178D000313280803178F00031303
:100220000B08A9008B13831603178C170C140000FE
:10023000000083120313A91B8B1703170C0D0E0D5F
:100240007F3903193D290313A60003170D08031373
:10025000A70003170F080313A8002608A900D92038
:10026000270803178D000313280803178F008D0A32
:1002700003198F0A0313E92803170313080003085F
:100280001F398300FF30A000A015200883168700C7
:10029000831220162008831687000C309300283024
:1002A0008312940083169413141308308312A3004E
:1002B000A501A40183161F149F141F159F11073059
:1002C0009C00831302308312A6009630A7001120F1
:1002D000A60B65293E30A6007128AB280130A90085
:1002E00061200A30A70011200C30A90061200130E4
:1002F000A600A700B220043003178D0000308F0045
:100300000313E9200130A6000230A700B2200B3011
:1003100003178D0000308F000313E9208E2963003E
:02400E003A3F37
:00000001FF
;PIC16F877A
;CRC=CAEF  CREATED="16-Dec-25 22:09"
